:10008A0092FE103E62940870FE20203E22428408AE
:10009A00FEBA92BA929ABAFE10FE9292FE1010100E
:1000AA007C4242424242427C3C4240404040423CC6
:1000BA007C42427C4242427C182442427E42424274
:1000CA004444447C444444443C4040404044443CCE
:1000DA007C40407C404040407C40407C4040407CEA
:1000EA0008182848FE0808087E02027E0202027EDC
:1000FA007E02027E4040407E081828080808083E12
:10010A007F327E00120162120003750D01C2A1E462
:10011A00F50EAF0D12019EC3740F950E75F008A46B
:10012A002489F582E43400F583E582250DF582E41D
:10013A003583F583E493FF12019E00050EE50EC395
:10014A00941040CED2A1050DE50DC3940940BE7F9F
:08015A00E87E0312016280B28D
:10000300C2A1E4F50F7F0912019EE4FF12019E05D0
:100013000FE50FC3941040EDD2A100C2A1E4F50F88
:100023007F0A12019E7F0312019E050FE50FC39401
:100033001040EDD2A100C2A1E4F50F7F0B12019E87
:100043007F0712019E050FE50FC3941040EDD2A167
:1000530000C2A1E4F50F7F0C12019E7F0112019EE5
:10006300050FE50FC3941040EDD2A1C2A1E4F50F33
:100073007F0F12019EE4FF12019E050FE50FC3944B
:060083001040EDD2A100C7
:010089002254
:040182008D098B0A4E
:10018600C2A112019EAF0912019EAF0A12019EAFD3
:070196000B12019E00D2A133
:01019D00223F
:10019E007E08C2A2EF3392A0EF25E0FFD2A2DEF2DC
:0101AE00222E
:10016200E4FDFCC3ED9FEC9E5015E4FBFA0BBB00D3
:0F017200010AEB64704A70F50DBD00010C80E4CA
:01018100225B
:030000000201AF4B
:0C01AF00787FE4F6D8FD75810F02010A8C
:00000001FF
